:1000000000308A001A280000303084008313000872
:10001000031917280630F800F701F70B0D28F80B25
:100020000C287B30F700F70B1328800B0A288A1165
:100030000A123C2803081F39830081308316990077
:10004000A6309800903083129800A00183161F14E8
:100050009F141F159F11831308308312AD00831660
:10006000081488140030860086018312860104304B
:10007000AF00FA30B0000428AF0B392808183E282A
:100080002008A00A213E8400831300308818013024
:100090008000081C492820080B3C031D8728A0016C
:1000A0000130AE002E08083C031C7E2821302E07AC
:1000B00084008313000B6C282E08083CAF0001302D
:1000C000F7002F08F800031969280310F70DF80B43
:1000D00065287708AC047C282E08083CAF00013066
:1000E000F7002F08F800031979280310F70DF80B13
:1000F00075287708FF3AAC05AE0A52282C080F3C49
:10010000031987288316860183122C0886003E284F
:0201100063008A
:023E00000800B8
:02400E00723FFF
:00000001FF
;PIC16F877
;CRC=4CBF  CREATED="09-may.-17 10:15"
