:020000000528D1
:10000A0083120313A001A101A201A30103308316E5
:10001A0088008601003083122106031D162800304D
:10002A002006031D282803300805F1007108033A49
:10003A00031D2028182802300805F1007108023A29
:10004A00031D28282028081C2B2828282108003CC2
:10005A00031D31282008083C031C3D28A20DA30DCE
:10006A002210F0018818F00A7008A2040030A304D4
:10007A00A00A0319A10A08184328402800302106BB
:10008A00031D49280B302006031D54282208860028
:10009A0006080F3A031D52288601A001A1010F2864
:0200AA005528D7
:0E00AC008312031325088A002408820008002E
:1000BA0056208A110A128000840AA40A0319A50A82
:0800CA00F003031D5D2808008E
:02400E004A2F37
:00000001FF
