:020000000528D1
:10000A0083120313A00103308316880018111F30CE
:10001A009900181298168312181698170130AC0016
:10002A001030AD000230AE00AF01EB220630AC005A
:10003A000130AD004D22A130AC000330AD00B22238
:10004A00DB227D23892366227008A0007008031929
:0C005A0031282008B00034222828322869
:100066008312031335088600061000000000000006
:100076000000000006140000000000000000000060
:0E0086000610A630FD00FD0B46280000080005
:10009400831203133508F000F00D7010F00D70108A
:1000A400F00D7010F00D70107008B5000F3086055B
:1000B4007008860406100000000000000000000024
:1000C4000614000000000000000000000610A63026
:0A00D400FD00FD0B6B280000080082
:1000DE008312031306118610291E79283408B500E1
:1000EE00332087283408B500B50CB513B50CB513FD
:1000FE00B50CB513B50CB5134A203408B5004A201B
:02010E000800E7
:10011000831203133008A4003108A5003208A6009A
:060120003308A7000800EF
:100126000430831203132B04F0007008AB00083070
:080136007004B4006F20080002
:0E013E008312031322088A00210882000800A1
:10014C004A29413083120313F100212A4230F10075
:10015C00212A4330F100212A4430F100212A453074
:10016C00F100212A4630F100212A4730F100212AE2
:10017C004830F100212A4930F100212A4A30F1009F
:10018C00212A4B30F100212A4C30F100212A4D302C
:10019C00F100212A4E30F100212A4F30F100212AA2
:1001AC005030F100212A5130F100212A5230F10057
:1001BC00212A5330F100212A5430F100212A5530E4
:1001CC00F100212A5630F100212A5730F100212A62
:1001DC005830F100212A5930F100212A5A30F1000F
:1001EC00212A3030F100212A3130F100212A32301D
:1001FC00F100212A3330F100212A3430F100212A78
:10020C003530F100212A3630F100212A3730F10047
:10021C00212A3830F100212A3930F100212A2E30E0
:10022C00F100212A2B30F100212A2D30F100212A56
:10023C002A30F100212A3130F100212A3230F1002C
:10024C00212A3330F100212A3430F100212A3530B3
:10025C00F100212A3630F100212A3730F100212A11
:10026C003830F100212A3930F100212A3030F100E8
:10027C00212A3F30F100212ABF30F100212A203001
:10028C00F100212AF101212A831203133008383A94
:10029C000319A72830084C3A0319AC283008843AC3
:1002AC000319AF283008C43A0319B2283008243A8D
:1002BC000319B5283008D43A0319B82830082C3A59
:1002CC000319BB283008CC3A0319BE283008C23AAF
:1002DC000319C1283008DC3A0319C4283008423A03
:1002EC000319C7283008D23A0319CA2830085C3AD7
:1002FC000319CD2830088C3A0319D0283008223A3B
:10030C000319D3283008B23A0319D6283008A83A72
:10031C000319D9283008B43A0319DC283008D83A24
:10032C000319DF283008343A0319E22830083C3A24
:10033C000319E5283008543A0319E8283008B83A6C
:10034C000319EB283008443A0319EE283008AC3A6C
:10035C000319F1283008583A0319F42830080E3ADA
:10036C000319F7283008963A0319FA2830084E3A40
:10037C000319FD2830085E3A031900293008D63AD3
:10038C00031903293008CE3A0319062930082E3AEE
:10039C00031909293008363A03190C293008AE3AEA
:1003AC0003190F293008BE3A0319122930088E3A66
:1003BC000319152930089E3A031918293008DE3A1A
:1003CC0003191B2930083E3A03191E293008683AD4
:1003DC00031921293008783A031924293008643A82
:1003EC00031927293008A43A03192A293008743A2A
:1003FC0003192D2930086C3A031930293008BC3AFE
:10040C000319332930088C3A031936293008623A1B
:10041C00031939293008A23A03193C293008723AD9
:10042C0003193F293008AA3A031942293008943A93
:0C043C000319452948297108F000080048
:10044800013083120313B4006F200D30FC00FB3021
:10045800FD00FD0B2D2AFC0B2D2A000000000800D2
:100468008312031306158610291E3E2A3008B5008C
:1004780033204C2A3008B500B50CB513B50CB513AC
:10048800B50CB513B50CB5134A203008B5004A2091
:0204980008005A
:10049A000430831203132D02031C552A0330AD00C6
:1004AA0023082D02031C5B2A2303AD002D08243EDA
:1004BA00840000082C07F00080307004B4006F201C
:0204CA00080028
:1004CC0083120313AC01AD01AE0103300805F1003A
:1004DC007108033A031D732A6B2A02300805F100D8
:1004EC007108023A031D7B2A732A1F302D02031850
:1004FC00922A081C822A7F2A2D081E3C031C8D2A56
:10050C00AC0D2C10F0018818F00A7008AC04AD0A80
:10051C000818912A8E2A7B2A03300805F1007108ED
:10052C00033A031D9A2A922A2C08AE002C08B0001C
:10053C00A620831203137008AE007008990083166E
:10054C009818A92AA52A83122E080F3A031DAF2A40
:08055C00AE012E08F0000800BA
:1005640083120313A80128082C07F0002D08031890
:10057400013EF1007008A1007108A2009F208A11B9
:100584000A12F1007108003A0319DA2A28082C0724
:10059400F0002D080318013EF1007008A100710855
:1005A400A2009F208A110A12B0003422A80AB52A98
:0205B40008003D
:1005B600023083120313B4006F200D30FC00FB30B1
:1005C600FD00FD0BE42AFC0BE42A000000000800F5
:1005D600831203132C080319F22AA901F42A1030F6
:1005E600A9002E08013C0318F92AA9152E08A30014
:1005F600B0014030B1002D08B2002D08403EB300D6
:1006060088202F08003A03190D2B2E08013A031DE6
:100616000D2B2915F8308316860583122C0803192D
:10062600182B0F30831686051A2B831686010F307A
:10063600831286050230FB004530FC00A930FD0020
:10064600FD0B232BFC0B232BFB0B232B00000000A5
:1006560086100611291A542B0330B5004A20213082
:10066600FC007630FD00FD0B362BFC0B362B000014
:100676000330B5004A202130FC007630FD00FD0B2A
:10068600422BFC0B422B00000330B5004A20F93008
:10069600FD00FD0B4C2B000000000230B5004A2087
:1006A6006F2B20302904B4006F202130FC007630F7
:1006B600FD00FD0B5C2BFC0B5C2B0000203029049D
:1006C600B4006F20F930FD00FD0B672B0000000021
:1006D60020302904B4006F2020302904B4006F2094
:1006E6000430AB00932024220230AA000630B40066
:0406F6006F20080069
:1006FA000230831203132B04F0007008AB00083099
:08070A007004B4006F20080028
:100712000130831203132B04F0007008AB00083081
:080722007004B4006F20080010
:10072A009F208A110A128000840AA10A0319A20AC8
:08073A00F003031D952B0800DC
:0A07420046344534203433340034CB
:02400E004A2F37
:00000001FF
