:020000000528D1
:10000A008A157E258A110330831603138800181176
:10001A001F30990018129816831218169817013073
:10002A008316CF001030D0000230D100D2018A15D9
:10003A0099228A118A15CE218A118A15AE218A112E
:10004A006F308316CF000730D0008A154D228A11EF
:10005A001A30FB005E30FC006E30FD00FD0B3328C9
:10006A00FC0B3328FB0B332800008A15AE218A11BA
:10007A008A15CE218A118A15E0218A118A15EE2164
:10008A008A118A15FC218A1170088312A00070084F
:10009A000319282E20080A3A03196D282008831606
:1000AA00D3008A1500208A1180302206F0008030A1
:1000BA007002031D62280F30210203186C282108E0
:1000CA00A03E840020088000A10A0319A20A282E53
:1000DA008A15AE218A118A15CE218A112108A03EDD
:1000EA0084008001A10A0319A20AA0308316CF0056
:1000FA005730D0008A1579228A1100307106031D03
:10010A00882800307006031D04298A15AE218A1139
:10011A008A15CE218A1126308316CF000D30D000E1
:10012A008A154D228A11CF010130D0008A154C233D
:10013A008A11EE308316CF000730D0008A154D227F
:10014A008A111A30FB005E30FC006E30FD00FD0B98
:10015A00AC28FC0BAC28FB0BAC2800008A15AE219E
:10016A008A118A15CE218A1192308316CF000B305C
:10017A00D0008A154D228A111A30FB005E30FC002D
:10018A006E30FD00FD0BC728FC0BC728FB0BC728E8
:10019A000000CF01D0018A154C238A11D53083166D
:1001AA00CF000C30D0008A154D228A111A30FB007C
:1001BA005E30FC006E30FD00FD0BE128FC0BE128EF
:1001CA00FB0BE12800008A15AE218A118A15CE217F
:1001DA008A1126308316CF000C30D0008A154D22A2
:1001EA008A111A30FB005E30FC006E30FD00FD0BF8
:1001FA00FC28FC0BFC28FB0BFC2800001E2EA03060
:10020A00CF006830D0008A1579228A110030710631
:10021A00031D112900307006031D81298A15AE219C
:10022A008A118A15CE218A11C0308316CF00073071
:10023A00D0008A154D228A11CF010130D0008A15CB
:10024A004C238A11D8308316CF000B30D0008A1580
:10025A004D228A111A30FB005E30FC006E30FD0020
:10026A00FD0B3529FC0B3529FB0B352900008A15B6
:10027A00AE218A118A15CE218A11B0308316CF0099
:10028A000730D0008A154D228A11CF010130D000E3
:10029A008A154C238A1174308316CF000B30D00094
:1002AA008A154D228A111A30FB005E30FC006E302E
:1002BA00FD00FD0B5E29FC0B5E29FB0B5E2900008D
:1002CA008A15AE218A118A15CE218A11E530831644
:1002DA00CF000B30D0008A154D228A111A30FB004C
:1002EA005E30FC006E30FD00FD0B7929FC0B79298C
:1002FA00FB0B792900001E2EA030CF00BB30D000A6
:10030A008A1579228A1100307106031D8E29003060
:10031A007006031D2C2A8A15AE218A118A15CE2150
:10032A008A11AE308316CF000B30D0008A154D22C9
:10033A008A11CF010130D0008A154C238A118330EB
:10034A008316CF000B30D0008A154D228A11CF01B7
:10035A00D0018A154C238A111A30FB005E30FC004A
:10036A006E30FD00FD0BB729FC0BB729FB0BB72933
:10037A0000008A15AE218A118A15CE218A11F2301F
:10038A008316CF000B30D0008A154D228A11CF0177
:10039A000130D0008A154C238A11B4308316CF005D
:1003AA000C30D0008A154D228A111A30FB005E30BB
:1003BA00FC006E30FD00FD0BE029FC0BE029FB0B75
:1003CA00E02900008A15AE218A118A15CE218A11E8
:1003DA00BC308316CF000B30D0008A154D228A110B
:1003EA00CF010130D0008A154C238A112F30831691
:1003FA00CF000D30D0008A154D228A111A30FB0029
:10040A005E30FC006E30FD00FD0B092AFC0B092A48
:10041A00FB0B092A00008A15AE218A118A15CE2102
:10042A008A11CA308316CF000C30D0008A154D22AB
:10043A008A111A30FB005E30FC006E30FD00FD0BA5
:10044A00242AFC0B242AFB0B242A00001E2EA0308F
:10045A00CF00B030D0008A1579228A110030710697
:10046A00031D392A00307006031DB72A8A15AE21EA
:10047A008A118A15CE218A111D308316CF000D30BC
:10048A00D0008A154D228A11CF010130D0008A1579
:10049A004C238A1153308316CF000D30D0008A15B1
:1004AA004D228A111A30FB005E30FC006E30FD00CE
:1004BA00FD0B5D2AFC0B5D2AFB0B5D2A00008A15E9
:1004CA00AE218A118A15CE218A11EB308316CF000C
:1004DA000C30D0008A154D228A11CF010130D0008C
:1004EA008A154C238A11BF308316CF000C30D000F6
:1004FA008A154D228A111A30FB005E30FC006E30DC
:10050A00FD00FD0B862AFC0B862AFB0B862A0000BF
:10051A008A15AE218A118A15CE218A116230831674
:10052A00CF000C30D0008A154D228A11CF0101303C
:10053A00D0008A154C238A116B308316CF000D30F8
:10054A00D0008A154D228A111A30FB005E30FC0059
:10055A006E30FD00FD0BAF2AFC0BAF2AFB0BAF2A56
:10056A0000001E2EA030CF003230D0008A1579222A
:10057A008A1100307106031DC42A00307006031D5B
:10058A00422B8A15AE218A118A15CE218A119E30F4
:10059A008316CF000C30D0008A154D228A11CF0164
:1005AA000130D0008A154C238A11A9308316CF0056
:1005BA000C30D0008A154D228A111A30FB005E30A9
:1005CA00FC006E30FD00FD0BE82AFC0BE82AFB0B51
:1005DA00E82A00008A15AE218A118A15CE218A11CD
:1005EA0041308316CF000D30D0008A154D228A1172
:1005FA00CF010130D0008A154C238A11E0308316CE
:10060A00CF000C30D0008A154D228A111A30FB0017
:10061A005E30FC006E30FD00FD0B112BFC0B112B24
:10062A00FB0B112B00008A15AE218A118A15CE21E7
:10063A008A116E308316CF000C30D0008A154D22F5
:10064A008A11CF010130D0008A154C238A11FF305C
:10065A008316CF000C30D0008A154D228A111A3029
:10066A00FB005E30FC006E30FD00FD0B3A2BFC0BEC
:10067A003A2BFB0B3A2B00001E2EA030CF00233062
:10068A00D0008A1579228A1100307106031D4F2B7A
:10069A0000307006031D552C8A15AE218A118A1561
:1006AA00CE218A112B308316CF000730D0008A154D
:1006BA004D228A11CF010130D0008A154C238A11AC
:1006CA00D0308316CF000730D0008A154D228A1108
:1006DA001A30FB005E30FC006E30FD00FD0B732B00
:1006EA00FC0B732BFB0B732B00008A15AE218A11AE
:1006FA008A15CE218A111A308316CF000730D0000E
:10070A008A154D228A11CF010130D0008A154C2357
:10071A008A11F6308316CF000630D0008A154D2292
:10072A008A111A30FB005E30FC006E30FD00FD0BB2
:10073A009C2BFC0B9C2BFB0B9C2B00008A15AE21DF
:10074A008A118A15CE218A1138308316CF000D30CE
:10075A00D0008A154D228A111A30FB005E30FC0047
:10076A006E30FD00FD0BB72BFC0BB72BFB0BB72B29
:10077A0000008A15AE218A118A15CE218A115E30AF
:10078A008316CF000730D0008A154D228A11CF0177
:10079A000130D0008A154C238A114D308316CF00C0
:1007AA000730D0008A154D228A111A30FB005E30BC
:1007BA00FC006E30FD00FD0BE02BFC0BE02BFB0B6D
:1007CA00E02B00008A15AE218A118A15CE218A11E2
:1007DA00A0308316CF000B30D0008A154D228A1123
:1007EA001A30FB005E30FC006E30FD00FD0BFB2B67
:1007FA00FC0BFB2BFB0BFB2B00008A15AE218A118D
:10080A008A15CE218A113C308316CF000730D000DA
:10081A008A154D228A11CF010130D0008A154C2346
:10082A008A1180308316CF000730D0008A154D22F6
:10083A008A111A30FB005E30FC006E30FD00FD0BA1
:10084A00242CFC0B242CFB0B242C00008A15AE2133
:10085A008A118A15CE218A1108308316CF000730F3
:10086A00D0008A154D228A11CF010130D0008A1595
:10087A004C238A11DF308316CF000730D0008A1547
:10088A004D228A111A30FB005E30FC006E30FD00EA
:10089A00FD0B4D2CFC0B4D2CFB0B4D2C00001E2E82
:1008AA00A030CF003D30D0008A1579228A1100305D
:1008BA007106031D622C00307006031DD22C8A15A6
:1008CA00AE218A118A15CE218A1132308316CF00C1
:1008DA000C30D0008A154D228A11CF010130D00088
:1008EA008A154C238A117A308316CF000C30D00037
:1008FA008A154D228A111A30FB005E30FC006E30D8
:10090A00FD00FD0B862CFC0B862CFB0B862C0000B5
:10091A008A15AE218A118A15CE218A119230831640
:10092A00CF000C30D0008A154D228A11CF01013038
:10093A00D0008A154C238A1186308316CF000C30DA
:10094A00D0008A154D228A111A30FB005E30FC0055
:10095A006E30FD00FD0BAF2CFC0BAF2CFB0BAF2C4C
:10096A0000008A15AE218A118A15CE218A11193002
:10097A008316CF000C30D0008A154D228A111A3006
:10098A00FB005E30FC006E30FD00FD0BCA2CFC0B38
:10099A00CA2CFB0BCA2C00001E2EA030CF004E30F2
:1009AA00D0008A1579228A1100307106031DDF2CC6
:1009BA0000307006031D342D8A15AE218A118A155E
:1009CA00CE218A114A308316CF000C30D0008A1506
:1009DA004D228A11CF010130D0008A154C238A1189
:1009EA003E308316CF000C30D0008A154D228A1172
:1009FA001A30FB005E30FC006E30FD00FD0B032D4B
:100A0A00FC0B032DFB0B032D00008A15AE218A1166
:100A1A008A15CE218A11FF308316CF000B30D00001
:100A2A008A154D228A11CF010130D0008A154C2334
:100A3A008A1156308316CF000C30D0008A154D2209
:100A4A008A111A30FB005E30FC006E30FD00FD0B8F
:100A5A002C2DFC0B2C2DFB0B2C2D00001E2EA03058
:100A6A00CF004830D0008A1579228A1100307106E9
:100A7A00031D412D00307006031D032E8A15AE2179
:100A8A008A118A15CE218A1190308316CF00073039
:100A9A00D0008A154D228A11CF010130D0008A1563
:100AAA004C238A1172308316CF000D30D0008A157C
:100ABA004D228A111A30FB005E30FC006E30FD00B8
:100ACA00FD0B652DFC0B652DFB0B652D00008A15B2
:100ADA00AE218A118A15CE218A114A308316CF0097
:100AEA000D30D0008A154D228A11CF010130D00075
:100AFA008A154C238A1109308316CF000D30D00095
:100B0A008A154D228A111A30FB005E30FC006E30C5
:100B1A00FD00FD0B8E2DFC0B8E2DFB0B8E2D000088
:100B2A008A15AE218A118A15CE218A1113308316AD
:100B3A00CF000D30D0008A154D228A11CF01013025
:100B4A00D0008A154C238A11CA308316CF000B3085
:100B5A00D0008A154D228A111A30FB005E30FC0043
:100B6A006E30FD00FD0BB72DFC0BB72DFB0BB72D1F
:100B7A0000008A15AE218A118A15CE218A11F53014
:100B8A008316CF000C30D0008A154D228A11CF016E
:100B9A000130D0008A154C238A115C308316CF00AD
:100BAA000D30D0008A154D228A111A30FB005E30B2
:100BBA00FC006E30FD00FD0BE02DFC0BE02DFB0B65
:100BCA00E02D00008A15AE218A118A15CE218A11DC
:100BDA0078308316CF000D30D0008A154D228A1145
:100BEA001A30FB005E30FC006E30FD00FD0BFB2D61
:100BFA00FC0BFB2DFB0BFB2D00001E2E8A15AE21D4
:100C0A008A118A15CE218A110C308316CF000C3036
:100C1A00D0008A154D228A111A30FB005E30FC0082
:100C2A006E30FD00FD0B172EFC0B172EFB0B172E3B
:100C3A0000008A15AE218A118A15CE218A11A101D6
:0A0C4A00A2018316A0014628292EFE
:100C5A00831603135808F000F00D7010F00D701091
:100C6A00F00D7010F00D70107008D8000F3083125C
:100C7A0086057008860406100000000000000000C7
:100C8A00000006140000000000000000000006102A
:0C0C9A00A630FD00FD0B4F2E00000800EE
:100CA60083160313580883128600061000000000FE
:100CB6000000000000000614000000000000000014
:100CC60000000610A630FD00FD0B672E0000080090
:100CD60083120313061186106F1E762E831657088D
:100CE600D8005326862E83165708D800D80CD8135A
:100CF600D80CD813D80CD813D80CD8132D26831695
:080D06005708D8002D26080053
:100D0E00831603135308C8005408C9005508CA00B7
:060D1E005608CB0008009E
:0E0D2400831603134E088A004D088200080053
:1010000083120313061586106F1E0D2883165308CE
:10101000D8008A1153268A15212883165308D80030
:10102000D80CD813D80CD813D80CD813D80CD81384
:101030008A112D268A1583165308D8008A112D2669
:041040008A15080005
:10104400CC28413083120313F100AB294230F10064
:10105400AB294330F100AB294430F100AB294530D2
:10106400F100AB294630F100AB294730F100AB2940
:101074004830F100AB294930F100AB294A30F10086
:10108400AB294B30F100AB294C30F100AB294D308A
:10109400F100AB294E30F100AB294F30F100AB2900
:1010A4005030F100AB295130F100AB295230F1003E
:1010B400AB295330F100AB295430F100AB29553042
:1010C400F100AB295630F100AB295730F100AB29C0
:1010D4005830F100AB295930F100AB295A30F100F6
:1010E400AB293030F100AB293130F100AB2932307B
:1010F400F100AB293330F100AB293430F100AB29D6
:101104003530F100AB293630F100AB293730F1002E
:10111400AB293830F100AB293930F100AB292E303E
:10112400F100AB292B30F100AB292D30F100AB29B4
:101134002A30F100AB293130F100AB293230F10013
:10114400AB293330F100AB293430F100AB29353011
:10115400F100AB293630F100AB293730F100AB296F
:101164003830F100AB293930F100AB293030F100CF
:10117400AB293F30F100AB29BF30F100AB2920305F
:10118400F100AB290A30F100AB290830F100AB299A
:10119400F101AB29831603135308383A03192328A2
:1011A40053084C3A031928285308843A03192B2866
:1011B4005308C43A03192E285308243A0319312832
:1011C4005308D43A0319342853082C3A03193728FE
:1011D4005308CC3A03193A285308C23A03193D2854
:1011E4005308DC3A031940285308423A03194328A8
:1011F4005308D23A0319462853085C3A031949287C
:1012040053088C3A03194C285308223A03194F28DF
:101214005308B23A031952285308A83A0319552817
:101224005308B43A031958285308D83A03195B28C9
:101234005308343A03195E2853083C3A03196128C9
:101244005308543A031964285308B83A0319672811
:101254005308443A03196A285308AC3A03196D2811
:101264005308583A0319702853080E3A031973287F
:101274005308963A0319762853084E3A03197928E5
:1012840053085E3A03197C285308D63A03197F2879
:101294005308CE3A0319822853082E3A0319852895
:1012A4005308363A031988285308AE3A03198B2891
:1012B4005308BE3A03198E2853088E3A031991280D
:1012C40053089E3A031994285308DE3A03199728C1
:1012D40053083E3A03199A285308683A03199D287B
:1012E4005308783A0319A0285308643A0319A32829
:1012F4005308A43A0319A6285308743A0319A928D1
:1013040053086C3A0319AC285308BC3A0319AF28A4
:1013140053088C3A0319B2285308623A0319B528C2
:101324005308A23A0319B8285308723A0319BB2880
:101334005308AA3A0319BE285308943A0319C1283A
:1013440053085A3A0319C4285308663A0319C7289C
:08135400CA287108F00008002E
:10135C00013083160313D7008A116B268A150D30C2
:10136C00FC00FB30FD00FD0BB929FC0BB92900007A
:04137C000000080065
:101380000430831603134704F0007008C7000830C8
:0C1390007004D7008A116B268A15080033
:10139C00023083160313D7008A116B268A150D3081
:1013AC00FC00FB30FD00FD0BD929FC0BD9290000FA
:0413BC000000080025
:1013C0000230831603134704F0007008C70008308A
:0C13D0007004D7008A116B268A150800F3
:1013DC000130831603134704F0007008C70008306F
:0C13EC007004D7008A116B268A150800D7
:1013F80083160313CF01D001D101033083120805EE
:10140800F1007108033A031D0A2A012A023008056F
:10141800F1007108023A031D122A0A2A1F308316A6
:10142800500203182F2A8312081C1B2A172A831616
:1014380050081E3C031C292ACF0D4F10F0018312BF
:101448008818F00A70088316CF04D00A8312081887
:101458002E2A2A2A122A831203300805F10071085D
:10146800033A031D382A2F2A83164F08D1004F0844
:10147800D30022208312031370088316D10070084A
:1014880083129900831698184A2A462A5108F000B0
:0214980008004A
:10149A0083160313C60146084F07F00050080318C5
:1014AA00013EF1007008CD007108CE008A11922623
:1014BA008A150A12F1007108003A0319782A4608B7
:1014CA004F07F00050080318013EF1007008CD00E4
:1014DA007108CE008A1192268A150A12D3000020BA
:0814EA008316C60A502A08000F
:1014F200831603134F088400000803198D2A4F082E
:1015020084000008F1005008840071080006031DE1
:101512008D2ACF0AD00A792A4F0884000008F000E9
:10152200500884000008F002F101031CF1030800D6
:10153200831603134F080319A12A8312EF01A42A69
:1015420083121030EF0083165108013C0318AB2AB6
:101552008312EF1583165108CC00D3014030D4001A
:101562005008D5005008403ED6008A1187268A15B9
:101572005208003A0319C32A5108013A031DC32A2B
:1015820083126F15F830831686054F080319CC2A8B
:101592000F308605CD2A86010F3083128605023070
:1015A200FB004530FC00A930FD00FD0BD62AFC0BE8
:1015B200D62AFB0BD62A00000000861006116F1AED
:1015C200132B03308316D8008A112D268A15213059
:1015D200FC007630FD00FD0BEC2AFC0BEC2A00002F
:1015E20003308316D8008A112D268A152130FC007B
:1015F2007630FD00FD0BFB2AFC0BFB2A00000330BA
:101602008316D8008A112D268A15F930FD00FD0BAC
:10161200082B0000000002308316D8008A112D2604
:101622008A15372B20306F048316D7008A116B2658
:101632008A152130FC007630FD00FD0B1E2BFC0BC1
:101642001E2B000020306F048316D7008A116B26F0
:101652008A15F930FD00FD0B2C2B00000000203014
:101662006F048316D7008A116B268A1520306F0407
:101672008316D7008A116B268A1504308316C70099
:10168200C021AE2102308316C5000630D7008A1170
:061692006B268A1508001A
:101698000430831603135002031C542B0330D0006C
:1016A8004C085002031C5A2B4C03D0005008C83E6B
:1016B800840000084F07F00080307004D7008A11BA
:0616C8006B268A150800E4
:1016CE008A1192268A150A128000840ACD0A0319FD
:0A16DE00CE0AF003031D672B08007D
:101AFC0020308400483083120313F0009930831691
:101B0C00CD000630CE006723A03084001030831245
:101B1C000313F000A0308316CD000730CE006723EE
:101B2C0068308400073083120313F000643083168E
:101B3C00CD000D30CE006723B030840015308312F9
:101B4C000313F000E1308316CD000630CE0067237E
:021B5C0008007F
:020D320000348B
:040D34000034003453
:100D380050344F34533447345234413444344F34AC
:0E0D48004134523454344534533400340034B2
:100D56004E344F344D3442345234453453344D348A
:060D66004F34003400349C
:100D6C004C3445344E34473443344F344E3447348A
:060D7C004F340034003486
:0C0D8200483445344C3450340034003404
:100D8E004F345234473441344E344F34533400349C
:020D9E0000341F
:100DA0004C3445344E3447344234493445344C3461
:100DB0004F3452345234553453344934413400346E
:020DC0000034FD
:100DC2004E344F344D344234523445345334483423
:060DD2004F340034003430
:100DD8004C3445344E34473445345334503432342B
:040DE800003400349F
:100DEC0044346F34633465346E3463346934613441
:100DFC00203465346E3420344134723474346534A8
:040E0C007334003407
:100E100035342E342D34203444346F3463347434F8
:100E20006F347234613464346F34203465346E341A
:040E30002034003436
:100E340032342E342D3420344D34613465347334DB
:100E44007434723469346134203465346E3420343B
:020E5400003468
:100E560031342E342D3420344D34613465347334BA
:100E66007434723469346134203465346E34203419
:020E7600003446
:100E780034342E342D3420344D3461346534733495
:100E88007434723469346134203465346E342034F7
:020E9800003424
:100E9A004434693473346534F1346F34203479342A
:100EAA00203443346F346D3475346E3469342D34E0
:020EBA00003402
:100EBC0033342E342D3420344D3461346534733452
:100ECC007434723469346134203465346E342034B3
:020EDC000034E0
:100EDE002034203420344C344934443453344F3489
:100EEE004C342D347434653472346D3420342034E3
:020EFE000034BE
:100F0000433469346E346534203444346F3463348C
:100F100075346D3465346E34743461346C3400343B
:100F20004C3445344E3447344234493445344C34DF
:100F30004F345234523455345334493441340034EC
:100F40000034003400340034003400340034003401
:100F500000340034003400340034003400340034F1
:100F600033342E342D342034463469346C346F34A9
:100F700073344C34653474347234613473340034F3
:100F800031342E342D3420344F3464346F346E3485
:100F900074346F346C346F346734693461340034C2
:100FA00041347234743465347334203456346934C3
:0E0FB0007334753461346C346534733400343A
:100FBE0041347234743465347334203479342034CB
:0E0FCE004434693473346534F1346F340034C4
:100FDC0032342E342D3420344234693465346C343C
:0E0FEC006F3472347234753473346F340034E1
:1016E80034342E342D342034503473346934633414
:0E16F8006F346C346F346734693461340034FD
:1017060020342034203420342034203479342034DA
:0E1716006C3465346F346E34E934733400344F
:1017240033342E342D3420345534633472346134DC
:0C1734006E34693461346E346F3400345C
:1017400063346134633469346F346E342034563416
:0C17500069347334753461346C34003437
:10175C0035342E342D342034413473347434753490
:0C176C007234693461346E346F34003420
:1017780038342E342D34203445347834743472346B
:0C17880065346D346534F1346F34003486
:1017940050344F34533447345234413444344F3446
:0C17A40041345234543445345334003482
:1017B00032342E342D342034453463346F346E3457
:0A17C0006F346D3469346134003475
:1017CA0035342E342D3420344D3465346434693440
:0A17DA00633469346E346134003466
:1017E40036342E342D342034413472346134673429
:0A17F4006F346E34E93473340034AE
:1017FE0033342E342D342034503475346C346D34EF
:0A180E006F346E3465347334003417
:101818004534723472346F34723420343734373488
:0A182800373420343A3463340034BE
:1018320035342E342D3420345434733468346934BE
:0A1842006C347534623461340034F4
:10184C0035342E342D3420345934693464346434B2
:08185C00693473346834003470
:1018640031342E342D3420344634723461346E34A1
:08187400633465347334003461
:10187C0032342E342D34203443346F34723461348A
:08188C007A346F346E3400342D
:1018940031342E342D342034433465347234653479
:0818A400623472346F34003429
:1018AC0034342E342D34203452346934F1346F34C2
:0818BC006E346534733400340E
:1018C40035342E342D3420344F346334743461343D
:0818D400763469346F340034EE
:1018DC0035342E342D3420344F346C3469346D341B
:0818EC007034693461340034EA
:1018F40032342E342D3420344B3469346B346F3409
:081904006E3467346F340034C7
:10190C0034342E342D3420345334753461346A34E9
:08191C0069346C3469340034B5
:1019240033342E342D3420344C3469346E346734DB
:0819340061346C3461340034AD
:10193C0031342E342D3420344F34663465346C34C9
:06194C006934613400342F
:1019520032342E342D3420344F34643465347434AC
:061962007434653400340A
:1019680037342E342D3420344134723461346E349B
:06197800E9347334003471
:10197E0034342E342D3420344F3462346534723482
:06198E006F346E340034DA
:10199400313430342E342D342034533469346C349F
:0619A40062346F340034D0
:1019AA0034342E342D34203450346F346C34613452
:0619BA0063346F340034B9
:1019C00034342E342D3420344F346C34693476342E
:0619D000693461340034AB
:1019D60033342E342D3420344F347334633461342D
:0419E6007234003423
:1019EA004C3445344E34473443344F344E34473400
:0419FA004F34003432
:1019FE0036342E342D3420344F346C3461347934F3
:041A0E00613400340B
:101A12004E344F344D3442345234453453344834C6
:041A22004F34003409
:101A26004E344F344D3442345234453453344D34AD
:041A36004F340034F5
:101A3A0031342E342D3420344F346D3461347234C1
:021A4A00003466
:101A4C0031342E342D3420345234753473346F3495
:021A5C00003454
:101A5E0039342E342D342034463461346C346134B0
:021A6E00003442
:101A7000793420344434693473346534F1346F3448
:021A8000003430
:101A820033342E342D3420344F346C346734613483
:021A920000341E
:101A94004C3445344E344734453453345034323462
:021AA40000340C
:101AA60032342E342D3420344F346C346134663461
:021AB6000034FA
:101AB8004F345234473441344E344F345334003465
:0E1AC800523455345434413435340034003433
:0E1AD60036342E342D3420344F34673400342F
:0C1AE4005234553454344134353400344D
:0A1AF000483445344C3450340034BF
:02400E004A2F37
:00000001FF
